{
  "address": "0x5FbDB2315678afecb367f032d93F642f64180aa3",
  "abi": [
    {
      "inputs": [],
      "name": "netVotes",
      "outputs": [
        {
          "internalType": "uint256",
          "name": "",
          "type": "uint256"
        }
      ],
      "stateMutability": "view",
      "type": "function"
    },
    {
      "inputs": [
        {
          "internalType": "string",
          "name": "partyname",
          "type": "string"
        }
      ],
      "name": "vote",
      "outputs": [],
      "stateMutability": "payable",
      "type": "function"
    },
    {
      "inputs": [
        {
          "internalType": "string",
          "name": "partyname",
          "type": "string"
        }
      ],
      "name": "votePerParty",
      "outputs": [
        {
          "internalType": "uint256",
          "name": "",
          "type": "uint256"
        }
      ],
      "stateMutability": "view",
      "type": "function"
    }
  ],
  "transactionHash": "0xf92cca7c9033fe7c05dfdf6c7547c339f9eb44c0f4ce77425b4aa86860404faa",
  "args": [],
  "numDeployments": 1,
  "solcInputHash": "49c8495e6a34fb90b553cec2afb6c5ee",
  "bytecode": "0x60806040526040518060a0016040528073f39fd6e51aad88f6f4ce6ab8827279cfffb9226673ffffffffffffffffffffffffffffffffffffffff1673ffffffffffffffffffffffffffffffffffffffff1681526020017370997970c51812dc3a010c7d01b50e0d17dc79c873ffffffffffffffffffffffffffffffffffffffff1673ffffffffffffffffffffffffffffffffffffffff168152602001733c44cdddb6a900fa2b585dd299e03d12fa4293bc73ffffffffffffffffffffffffffffffffffffffff1673ffffffffffffffffffffffffffffffffffffffff1681526020017390f79bf6eb2c4f870365e785982e1f101e93b90673ffffffffffffffffffffffffffffffffffffffff1673ffffffffffffffffffffffffffffffffffffffff1681526020017315d34aaf54267db7d7c367839aaf71a00a2c6a6573ffffffffffffffffffffffffffffffffffffffff1673ffffffffffffffffffffffffffffffffffffffff16815250600290600561017b92919061018e565b5034801561018857600080fd5b50610235565b828054828255906000526020600020908101928215610207579160200282015b828111156102065782518260006101000a81548173ffffffffffffffffffffffffffffffffffffffff021916908373ffffffffffffffffffffffffffffffffffffffff160217905550916020019190600101906101ae565b5b5090506102149190610218565b5090565b5b80821115610231576000816000905550600101610219565b5090565b610640806102446000396000f3fe6080604052600436106100345760003560e01c8063a69416fd14610039578063f57b256014610076578063fc36e15b146100a1575b600080fd5b34801561004557600080fd5b50610060600480360381019061005b91906103ae565b6100bd565b60405161006d9190610410565b60405180910390f35b34801561008257600080fd5b5061008b6100e5565b6040516100989190610410565b60405180910390f35b6100bb60048036038101906100b691906103ae565b6100ee565b005b60006001826040516100cf919061049c565b9081526020016040518091039020549050919050565b60008054905090565b60005b6002805490508110156102155760028181548110610112576101116104b3565b5b9060005260206000200160009054906101000a900473ffffffffffffffffffffffffffffffffffffffff1673ffffffffffffffffffffffffffffffffffffffff163373ffffffffffffffffffffffffffffffffffffffff16036102025760028181548110610183576101826104b3565b5b9060005260206000200160006101000a81549073ffffffffffffffffffffffffffffffffffffffff0219169055600180836040516101c1919061049c565b908152602001604051809103902060008282546101de9190610511565b925050819055506000808154809291906101f790610545565b919050555050610251565b808061020d90610545565b9150506100f1565b506040517f08c379a0000000000000000000000000000000000000000000000000000000008152600401610248906105ea565b60405180910390fd5b50565b6000604051905090565b600080fd5b600080fd5b600080fd5b600080fd5b6000601f19601f8301169050919050565b7f4e487b7100000000000000000000000000000000000000000000000000000000600052604160045260246000fd5b6102bb82610272565b810181811067ffffffffffffffff821117156102da576102d9610283565b5b80604052505050565b60006102ed610254565b90506102f982826102b2565b919050565b600067ffffffffffffffff82111561031957610318610283565b5b61032282610272565b9050602081019050919050565b82818337600083830152505050565b600061035161034c846102fe565b6102e3565b90508281526020810184848401111561036d5761036c61026d565b5b61037884828561032f565b509392505050565b600082601f83011261039557610394610268565b5b81356103a584826020860161033e565b91505092915050565b6000602082840312156103c4576103c361025e565b5b600082013567ffffffffffffffff8111156103e2576103e1610263565b5b6103ee84828501610380565b91505092915050565b6000819050919050565b61040a816103f7565b82525050565b60006020820190506104256000830184610401565b92915050565b600081519050919050565b600081905092915050565b60005b8381101561045f578082015181840152602081019050610444565b60008484015250505050565b60006104768261042b565b6104808185610436565b9350610490818560208601610441565b80840191505092915050565b60006104a8828461046b565b915081905092915050565b7f4e487b7100000000000000000000000000000000000000000000000000000000600052603260045260246000fd5b7f4e487b7100000000000000000000000000000000000000000000000000000000600052601160045260246000fd5b600061051c826103f7565b9150610527836103f7565b925082820190508082111561053f5761053e6104e2565b5b92915050565b6000610550826103f7565b91507fffffffffffffffffffffffffffffffffffffffffffffffffffffffffffffffff8203610582576105816104e2565b5b600182019050919050565b600082825260208201905092915050565b7f496e76616c696420566f74657200000000000000000000000000000000000000600082015250565b60006105d4600d8361058d565b91506105df8261059e565b602082019050919050565b60006020820190508181036000830152610603816105c7565b905091905056fea2646970667358221220aeffdc66f1355a707c86fa2079053c1192f5d66c056190b2ab21f3918cb71afe64736f6c63430008120033",
  "devdoc": {
    "kind": "dev",
    "methods": {},
    "version": 1
  },
  "userdoc": {
    "kind": "user",
    "methods": {},
    "version": 1
  },
  "storageLayout": {
    "storage": [
      {
        "astId": 3,
        "contract": "contracts/Voting.sol:Storage",
        "label": "totalVotes",
        "offset": 0,
        "slot": "0",
        "type": "t_uint256"
      },
      {
        "astId": 7,
        "contract": "contracts/Voting.sol:Storage",
        "label": "partyToVote",
        "offset": 0,
        "slot": "1",
        "type": "t_mapping(t_string_memory_ptr,t_uint256)"
      },
      {
        "astId": 16,
        "contract": "contracts/Voting.sol:Storage",
        "label": "allowedVoters",
        "offset": 0,
        "slot": "2",
        "type": "t_array(t_address)dyn_storage"
      }
    ],
    "types": {
      "t_address": {
        "encoding": "inplace",
        "label": "address",
        "numberOfBytes": "20"
      },
      "t_array(t_address)dyn_storage": {
        "base": "t_address",
        "encoding": "dynamic_array",
        "label": "address[]",
        "numberOfBytes": "32"
      },
      "t_mapping(t_string_memory_ptr,t_uint256)": {
        "encoding": "mapping",
        "key": "t_string_memory_ptr",
        "label": "mapping(string => uint256)",
        "numberOfBytes": "32",
        "value": "t_uint256"
      },
      "t_string_memory_ptr": {
        "encoding": "bytes",
        "label": "string",
        "numberOfBytes": "32"
      },
      "t_uint256": {
        "encoding": "inplace",
        "label": "uint256",
        "numberOfBytes": "32"
      }
    }
  }
}